{
  "_format": "hh-sol-artifact-1",
  "contractName": "ALcoinSubscription",
  "sourceName": "contracts/ALcoinSubscription.sol",
  "abi": [
    {
      "inputs": [],
      "stateMutability": "nonpayable",
      "type": "constructor"
    },
    {
      "inputs": [
        {
          "internalType": "address",
          "name": "user",
          "type": "address"
        }
      ],
      "name": "checkSubscription",
      "outputs": [
        {
          "internalType": "bool",
          "name": "",
          "type": "bool"
        }
      ],
      "stateMutability": "view",
      "type": "function"
    },
    {
      "inputs": [
        {
          "internalType": "address",
          "name": "",
          "type": "address"
        }
      ],
      "name": "isSubscribed",
      "outputs": [
        {
          "internalType": "bool",
          "name": "",
          "type": "bool"
        }
      ],
      "stateMutability": "view",
      "type": "function"
    },
    {
      "inputs": [],
      "name": "owner",
      "outputs": [
        {
          "internalType": "address",
          "name": "",
          "type": "address"
        }
      ],
      "stateMutability": "view",
      "type": "function"
    },
    {
      "inputs": [],
      "name": "subscribe",
      "outputs": [],
      "stateMutability": "nonpayable",
      "type": "function"
    },
    {
      "inputs": [],
      "name": "unsubscribe",
      "outputs": [],
      "stateMutability": "nonpayable",
      "type": "function"
    }
  ],
  "bytecode": "0x6080604052348015600f57600080fd5b50336000806101000a81548173ffffffffffffffffffffffffffffffffffffffff021916908373ffffffffffffffffffffffffffffffffffffffff1602179055506103618061005f6000396000f3fe608060405234801561001057600080fd5b50600436106100575760003560e01c80634f62647e1461005c5780638da5cb5b1461008c5780638f449a05146100aa578063b92ae87c146100b4578063fcae4484146100e4575b600080fd5b6100766004803603810190610071919061029e565b6100ee565b60405161008391906102e6565b60405180910390f35b610094610144565b6040516100a19190610310565b60405180910390f35b6100b2610168565b005b6100ce60048036038101906100c9919061029e565b6101c1565b6040516100db91906102e6565b60405180910390f35b6100ec6101e1565b005b6000600160008373ffffffffffffffffffffffffffffffffffffffff1673ffffffffffffffffffffffffffffffffffffffff16815260200190815260200160002060009054906101000a900460ff169050919050565b60008054906101000a900473ffffffffffffffffffffffffffffffffffffffff1681565b60018060003373ffffffffffffffffffffffffffffffffffffffff1673ffffffffffffffffffffffffffffffffffffffff16815260200190815260200160002060006101000a81548160ff021916908315150217905550565b60016020528060005260406000206000915054906101000a900460ff1681565b6000600160003373ffffffffffffffffffffffffffffffffffffffff1673ffffffffffffffffffffffffffffffffffffffff16815260200190815260200160002060006101000a81548160ff021916908315150217905550565b600080fd5b600073ffffffffffffffffffffffffffffffffffffffff82169050919050565b600061026b82610240565b9050919050565b61027b81610260565b811461028657600080fd5b50565b60008135905061029881610272565b92915050565b6000602082840312156102b4576102b361023b565b5b60006102c284828501610289565b91505092915050565b60008115159050919050565b6102e0816102cb565b82525050565b60006020820190506102fb60008301846102d7565b92915050565b61030a81610260565b82525050565b60006020820190506103256000830184610301565b9291505056fea26469706673582212200ccd2d244c8ada7ae8f1c9fd7a05ad37eb3b1c17cf41af9f5625713519f7c45864736f6c634300081c0033",
  "linkReferences": {},
  "deployedLinkReferences": {}
}